:100000000C948B000C94A2000C94A2000C94A200FF
:100010000C94A2000C94A2000C94A2000C94A200D8
:100020000C94A2000C94A2000C94A2000C94A200C8
:100030000C94A2000C94A2000C94A2000C94A200B8
:100040000C94A2000C94A2000C94A2000C94A200A8
:100050000C94A2000C94A2000C94A2000C94A20098
:100060000C94A2000C94A2000C94A2000C94A20088
:100070000C94A2000C94A2000C94A2000C94A20078
:100080000C94A2000C94A2000C94A2000A023B0261
:100090003B023B023B023B023B023B023B023B0278
:1000A0003B023B023B023B023B023B023B023B0268
:1000B0003B023B023B023B023B023B023B023B0258
:1000C0003B023B023B023B023B023B023B023B0248
:1000D0003B0238023B023B023B023B023B023B023B
:1000E00033023B023B023B023B023B0236020C0264
:1000F0000F021202150218021B021E022102240224
:100100003B023B023B023B023B023B023B0227021B
:100110002A022D02300211241FBECFEFD0E4DEBF31
:10012000CDBF11E0A0E0B1E0E0E9F4E000E00BBFFA
:1001300002C007900D92AE30B107D9F70E94F801C6
:100140000C9446020C94000040E050E00CC000000B
:100150002F5F3F4F02C020E030E0273063E03607DA
:10016000B4F34F5F5F4F48175907ACF308959BB145
:100170009F7B9BB988B98BB180688BB900008BB12C
:100180008F778BB982E090E00E94A400089581E00F
:100190000E94B7000895813120F481580E94B70071
:1001A000089581550E94B700089584E690E00E946A
:1001B000A40088E30E94B70086E00E94B7008FE0A9
:1001C0000E94B70081E00E94B7008AE090E00E94A0
:1001D000A40008959BB190649BB988B98BB18068E5
:1001E0008BB900008BB18F778BB981E090E00E94D2
:1001F000A4000895EF92FF920F931F93CF93DF9384
:10020000182FEB010E94C7000EC001E0010F812FE3
:100210000E94CB007E018FEFE81AF80A88810E94C5
:10022000EA00102FE70188818111EFCFDF91CF9194
:100230001F910F91FF90EF900895CF93C82F8A30B0
:1002400019F48DE00E941D018091C00085FFFCCF54
:10025000C093C60080E090E0CF910895442349F018
:1002600021E030E002C0220F331F6A95E2F7822BB3
:10027000089521E030E002C0220F331F6A95E2F7B3
:1002800020958223089521E030E002C0220F331F21
:100290006A95E2F78223089540E064E08FEF0E94C0
:1002A0002E0182B9000080B160E080950E94430178
:1002B000811180C080B161E080950E94430181116D
:1002C0007BC080B162E080950E944301811176C0BD
:1002D00080B163E080950E944301811171C040E0CC
:1002E00065E08FEF0E942E0182B9000080B160E0CE
:1002F00080950E944301811165C080B161E08095C5
:100300000E944301811160C080B162E080950E942B
:10031000430181115BC080B163E080950E9443017D
:10032000811156C040E066E08FEF0E942E0182B935
:10033000000080B160E080950E94430181114AC0B5
:1003400080B161E080950E944301811145C080B178
:1003500062E080950E944301811140C080B163E05A
:1003600080950E94430181113BC040E067E08FEF20
:100370000E942E0182B9000080B160E080950E9449
:10038000430181112FC080B161E080950E9443013B
:1003900081112AC080B162E080950E9443018111E1
:1003A00025C080B163E080950E9443018823F9F065
:1003B00084E4089581E3089584E3089587E308952C
:1003C0008AE2089582E3089585E3089588E3089515
:1003D00080E3089583E3089586E3089589E308950B
:1003E00083E2089581E4089582E4089583E4089502
:1003F0008FEF84B915B880EF81B98FE082B90E9480
:100400004C0190E085349105B0F5FC01EA5BFF4FAB
:100410000C943D0215B8F3CF81E085B9F0CF82E0AE
:1004200085B9EDCF83E085B9EACF84E085B9E7CF20
:1004300085E085B9E4CF86E085B9E1CF87E085B96D
:10044000DECF88E085B9DBCF89E085B9D8CF8AE0F7
:1004500085B9D5CF8BE085B9D2CF8CE085B9CFCF28
:100460008DE085B9CCCF8EE085B9C9CF15B8C7CF9F
:100470008FE085B9C4CF15B8C2CFEE0FFF1F00249F
:10048000001C0BBE0790F691E02D0994F894FFCF65
:0E04900000000002000000001D01000000003E
:00000001FF
